:100000000C9407010C942F010C942F010C942F01D8
:100010000C942F010C942F010C942F010C942F01A0
:100020000C942F010C942F010C9427160C94961607
:100030000C942F010C942F010C942F010C942F0180
:100040000C942F010C942F010C942F010C942F0170
:100050000C942F010C942F010C942F010C94C818B0
:100060000C942F010C942F010C942F010C942F0150
:100070000C942F010C942F010C942F010C942F0140
:100080000C942F010C942F010C942F010C942F0130
:100090000C942F010C942F010C942F010C942F0120
:1000A0000C942F010C942F010C942F014E414E49BA
:1000B0004E495459494E46CDCCCC3D0AD7233C1726
:1000C000B7D13877CC2B329595E6241FB14F0A0073
:1000D0000020410000C84200401C4620BCBE4CCA63
:1000E0001B0E5AAEC59D74080B00020202000009E7
:1000F0000400000102020000052400100105240193
:1001000001010424020605240600010705810310ED
:10011000004009040100020A000000070502024035
:1001200000000705830240000004030904120100D7
:1001300002EF020140412336800001010203014128
:10014000726475696E6F204C4C430041726475692E
:100150006E6F204C656F6E6172646F00000000026C
:1001600000090F0000030401000C00000000000063
:10017000000000000000000000000000000000255A
:100180000028002B002E0031000000000024002772
:10019000002A002D003000040404040403040502B6
:1001A0000202020403020202020606060606060412
:1001B00004020202040404080201104080401020DE
:1001C000408040800802040180402010020110801D
:1001D000102040402005010902A1010901A100856C
:1001E00001050919012903150025019503750181F0
:1001F000029501750581030501093009310938159A
:1002000081257F750895038106C0C000451911241A
:100210001FBECFEFDAE0DEBFCDBF23E0A8EDB1E037
:1002200001C01D92A432B207E1F711E0A0E0B1E0F5
:10023000ECE3F6E402C005900D92A83DB107D9F7B2
:1002400011E0C7E0D1E004C02197FE010E9409211E
:10025000C630D107C9F70E94951A0C941C230C9440
:100260000000CF93DF93FC01818190915202482FCF
:10027000490F5527551F483051059CF5A281B38180
:10028000109709F52EE432E03383228320812093F6
:1002900050028093510280915302820F80832091FB
:1002A0005402A22FB09155028A2F821B8917E8F4BD
:1002B00081813D91C82FD0E0C45FDE4F38838F5FCE
:1002C0008183F2CFD90118962D913C911997211570
:1002D0003105C1F72EE432E019963C932E9318971E
:1002E000D5CF80E0DF91CF91089581E0FBCF8CBD29
:1002F0009DBD089590E0FC01EA54FE4F249189567B
:100300009E4FFC018491882399F090E0880F991FFB
:10031000FC01E757FE4FA591B491FC01E558FE4F53
:10032000859194918FB7F894EC91E22BEC938FBF69
:100330000895FC018091FC01882311F13FB7F894E6
:1003400082E08093E9002091F200822F90E018165D
:10035000190614F481E090E0882339F0289844E6E7
:100360004093FB014091F1004083222339F020911A
:10037000F200211103C02BE62093E8003FBF08954F
:100380008FEF9FEF08954091F0015091F10120917E
:10039000EE013091EF0142175307B4F49091E80059
:1003A0009570E1F39091E80092FD19C08093F100FF
:1003B0008091F0019091F10101968F739927892B1B
:1003C00019F48EEF8093E8008091F0019091F10193
:1003D00001969093F1018093F00181E0089580E00F
:1003E0000895DF92EF92FF920F931F93CF93DF93C5
:1003F000D82E8A01EB017B01E40EF51ECE15DF0538
:1004000059F0D7FE12C0FE0184910E94C3012196CB
:100410008111F4CF0FEF1FEFC801DF91CF911F9132
:100420000F91FF90EF90DF9008958881EECF2FB766
:10043000F89487708093E9009091E800892F80728A
:1004400095FF04C09091F20080E4891B2FBF0895AE
:10045000615030F02091F100FC0120830196F8CF2B
:10046000289884E68093FB0108958091E60181112C
:100470000DC082E08093E20184E08093E30110925A
:10048000E5011092E40181E08093E60182EE91E0C3
:1004900008950F931F93CF93DF931F92CDB7DEB7CD
:1004A00082E0898342E450E067EE70E080E80E94D9
:1004B000F1010E943502DC0112960D911C9101158B
:1004C000110589F0D801ED91FC910280F381E02DB6
:1004D000BE016F5F7F4FC801099597FD04C0F80109
:1004E00000851185ECCF89810F90DF91CF911F910D
:1004F0000F910895CF93DF931F92CDB7DEB7698335
:10050000DC01ED91FC910280F381E02D41E050E0AF
:10051000BE016F5F7F4F09950F90DF91CF910895D6
:1005200083E08093E9008091F200882319F08AE348
:100530008093E800089583E00E94170290E00895F8
:10054000CF93DF931F92CDB7DEB7FC0184859585ED
:1005500097FD08C02FEF3FEF358724870F90DF917D
:10056000CF910895CE0101960E949901019719F447
:10057000898190E0F3CF8FEF9FEFF0CF0F931F9320
:10058000CF93DF931F92CDB7DEB78C01FC0184853A
:10059000958597FF0BC0CE0101960E9499010197A6
:1005A00071F4898190E0F80195878487F80184854A
:1005B00095850F90DF91CF911F910F9108958FEF47
:1005C0009FEFF1CFFC018485958597FD0BC09FB708
:1005D000F89482E08093E9008091F2009FBF90E060
:1005E000019608959FB7F89482E08093E900809186
:1005F000F2009FBF90E008953FB7F8948091DE012C
:100600009091DF01A091E001B091E10126B5A89B96
:1006100005C02F3F19F00196A11DB11D3FBFBA2F94
:10062000A92F982F8827BC01CD01620F711D811D54
:10063000911D42E0660F771F881F991F4A95D1F7D9
:1006400008958F929F92AF92BF92CF92DF92EF92D6
:10065000FF924B015C010E94FC026B017C010E9435
:10066000FC026C197D098E099F09683E7340810563
:100670009105A8F321E0821A9108A108B10888EE3B
:10068000C80E83E0D81EE11CF11C81149104A10462
:10069000B10429F7FF90EF90DF90CF90BF90AF901B
:1006A0009F908F9008957F928F929F92AF92BF926A
:1006B000CF92DF92EF92FF920F931F93CF93DF932E
:1006C000C82E8B017A018091FC01811110C08FEF3F
:1006D0009FEFDF91CF911F910F91FF90EF90DF90EF
:1006E000CF90BF90AF909F908F907F900895809112
:1006F000F40180FF05C08091E00082608093E000FB
:10070000CE2DDF2DD12C8AEFB82E8C2D8770982E10
:100710008C2D8072882E8C2D8074782E9AE3A92ED1
:10072000209719F4DD2009F452C08C2D0E94170285
:1007300081110AC0BA94BB2051F261E070E080E000
:1007400090E00E942103ECCF8C171D0611F00CF0F5
:100750008C2F9FB7F8949092E9002091E80025FD36
:1007600002C09FBFDDCF282F30E0C21BD30B8820F3
:1007700029F08150A0F01092F100FBCFF801C7FCE6
:100780000AC0815050F041914093F100FACF44915A
:100790004093F10031968150D0F7020F131FDD20F6
:1007A00021F0A092E800D12CDCCF8091E80085FDFB
:1007B00007C0A092E800DD24D394209791F2F3CFF4
:1007C000209779F6772069F2A092E800CACF5D9869
:1007D00084E68093F301C7017CCF1F93CF93DF930F
:1007E00000D000D01F92CDB7DEB7909175029983EB
:1007F0008A836B831C8280915F0281112AC011E081
:10080000109352021093530288E592E090935502A0
:100810008093540210925702109256028BE391E09B
:1008200090934F0280934E0210925A0210925902F6
:1008300010925C0210925B0210935D0210935E02B4
:1008400081EC809358020E9435020E94310110937E
:100850005F0281E08D8341E050E0BE016B5F7F4F1E
:10086000809151020E94530397FD0AC0809151026A
:1008700044E050E0BE016F5F7F4F80640E945303ED
:100880000F900F900F900F900F90DF91CF911F91CD
:1008900008958093750260E080E00C94ED03CF939F
:1008A000DF93EC0180910B01882331F083E00E94FB
:1008B00053031816190634F081E090E09B838A8375
:1008C00080E090E0DF91CF9108952FB7F894609188
:1008D000DA017091DB018091DC019091DD012FBF85
:1008E00008950F931F930E9465046093060270930E
:1008F000070280930802909309028EEF91E00E9414
:10090000A00297FF1DC00E9465040091060210918D
:1009100007022091080230910902601B710B820BC3
:10092000930B009102021091030220910402309176
:1009300005026017710782079307F8F28FEF9FEFA8
:100940001F910F910895DC01FB0112962C911297D3
:10095000848195812817190641F491818081813A1B
:1009600031F49D7F81E0913009F080E0089581327B
:10097000E1F79B3029F482811F968C9381E00895E2
:100980009A3099F7828150968C93F8CFDC01FB0165
:1009900088E4808389E4818384E482831D969C912A
:1009A0001D979F709F5B93831D968D919C9124E072
:1009B000969587952A95E1F78F708F5B848385E004
:1009C0000895EF92FF920F931F93CF93DF93FB0154
:1009D0002081213871F52381223259F5DC011296EC
:1009E0004C91248135814217130619F5EC010B85D2
:1009F0001C85F12CE12C0115110589F0F8014481C9
:100A000055816281738180E80E94F1018F3F9807D0
:100A100049F0E80EF91ED8010D911C91ECCF81E050
:100A20008F87C701DF91CF911F910F91FF90EF90BA
:100A3000089590E080E0F6CFCF93DF93CDB7DEB797
:100A400069970FB6F894DEBF0FBECDBFFC01DB0186
:100A50008C918F5F8C939E012D5F3F4F8DE0D9016C
:100A60001D928A95E9F729E0298384E08A8391E041
:100A70009D8383E08E832A8721E22B879C879D8735
:100A80009F8722E2288B27E02B8B25E02C8B8E8BF7
:100A900020E430E0388F2F8B998F82818B8395856E
:100AA0008685998B8A8B838180688D8B49E150E0A4
:100AB000BE016F5F7F4F80E00E94F10169960FB623
:100AC000F894DEBF0FBECDBFDF91CF910895CF93D5
:100AD000DF93EC018A819B81DC01ED91FC91048024
:100AE000F581E02D6A8509958A85813439F4EA819A
:100AF000FB81EA58FF4F8081846080831A861B86C1
:100B00001C861D861E861F86188A80E0DF91CF9185
:100B1000089581E0693009F080E00895FC01828544
:100B200008950F931F93CF93DF93FC018B01EA018C
:100B300080819181892B31F19281992349F128811A
:100B40003981232BF9F0D8012D913C91D9014C9199
:100B50008381682F691B770B80819181860F971F96
:100B6000DC014C9382818150828388819981019735
:100B700099838883D8018D919C91119701968D93CB
:100B80009C93DACF80E0DF91CF911F910F91089570
:100B90008381828381E0F7CF0F931F93CF93DF93FD
:100BA000EC018A818170F8019081292F21708217D0
:100BB00051F0E881F98190FF46C00680F781E02D71
:100BC000B801CE0109958A8186958170F8019081DE
:100BD00091FB222720F9821751F0E881F98191FFDA
:100BE00036C00284F385E02DB801CE0109958A81D3
:100BF00082FB882780F9F801908192FB222720F957
:100C0000821751F0E881F98192FF25C00684F785AB
:100C1000E02DB801CE010995F8018181811103C051
:100C20008281882341F0E881F9810280F381E02DFF
:100C3000B801CE010995F80180818A83DF91CF91B7
:100C40001F910F9108950480F581E02DB9CF0084A4
:100C5000F185E02DC9CF0484F585E02DDACFDF9250
:100C6000EF92FF920F931F93CF93DF93EC0185E0F8
:100C7000E62EF12CFE01869FE00DF11D11249085DA
:100C800096FF24C0192F177001E085E0D82E8FEF52
:100C9000800F8F3008F001E0602F70E0062FD69EA5
:100CA000F001D79EF00D1124EC0FFD1F8085869575
:100CB000869586958770181701F16F5F7F4F6031B9
:100CC00068F38D81811302C011501D8385E08E9DD4
:100CD000F0018F9DF00D1124EC0FFD1F108681E0B7
:100CE000818712862296D783C683DF91CF911F9189
:100CF0000F91FF90EF90DF900895CE010E942F0694
:100D0000C6CFFC0120812EBD9B012150310941F04D
:100D100051810DB407FEFDCF4EB55EBD4193F5CFB9
:100D200061507109860F971F0DB407FEFDCF2EB5D8
:100D3000FC0120830895FC0121E0613499F49C01B9
:100D4000255B3F4F61E0AC014E5F5F4F15866687C4
:100D500017865487438735962E173F07B9F7FC014E
:100D6000158208953585631729F02F5F3596203158
:100D7000C9F70895622F0C942F06CF93DF93FC01DF
:100D800067FD12C0283080F4442319F08581873034
:100D900059F0EF01A1E0B0E08D85882349F111966B
:100DA0002596A031B105C1F780E018C085E08A9F83
:100DB000E0018B9FD00D1124CE0FDF1F442389F05B
:100DC00081E4888785818F5F858325E02A9FC00124
:100DD0002B9F900D1124E80FF91F8085DF91CF9193
:100DE000089581E08887F1CF2770687B622B0FC060
:100DF0006623E1F26770660F660F660F4423A1F366
:100E0000606485818F5F85838770687F682B25E0AC
:100E10002A9FC0012B9F900D1124E80FF91F6087B6
:100E2000862FDCCFFC0121E0611102C006960895F7
:100E30003585631739F02F5F35962031C9F790E07B
:100E400080E00895069635E0239F800D911D1124C2
:100E5000089581E008953F924F925F926F927F9242
:100E60008F929F92AF92BF92CF92DF92EF92FF92BA
:100E70000F931F93CF93DF9300D000D0CDB7DEB791
:100E80006C017A8369835C834B8384E0482E36014E
:100E900082E1680E711C93E0392E5601A7E0AA0E7C
:100EA000B11C12E0552453944601B0E18B0E911C05
:100EB00029813A812115310509F4CDC0F60180A1BF
:100EC0008230F1F0A8F5882309F457C0813091F7FA
:100ED000AE014F5F5F4FBE016D5F7F4FC5010E9446
:100EE0009105882309F4B7C0D6011596ED91FC91C0
:100EF0001697808191968C939197818192968C938D
:100F0000F6017682658230A2D60192968C919297F4
:100F1000843011F493961C92F60181A1825084834F
:100F200025813681308727838287818740A205C04B
:100F3000833051F3843009F0BDCFD60192968C9165
:100F40009297843019F1853009F44BC0823009F052
:100F500075C0AE014F5F5F4FBE016D5F7F4FC50132
:100F60000E949105882309F476C0F601858984A33F
:100F7000F6019682858210A29BCF1483858196818B
:100F8000908787831287118750A2A2CFAE014F5F4F
:100F90005F4FBE016D5F7F4FC5010E9491058823A1
:100FA00009F459C0D60155968C915597833001F7B5
:100FB00056968C9156978130D9F698969C91989731
:100FC00057968C91992351F0882391F2F60153A200
:100FD000928996A3938997A385A3CACF823041F6BD
:100FE000F5CFAE014F5F5F4FBE016D5F7F4FC50113
:100FF0000E949105882379F1D60193968C9193975D
:10100000882309F4B5CF12968D919C91009709F42D
:10101000AFCFDC01ED91FC910190F081E02D7401E6
:10102000D60195960C91959797962C9197979696B1
:101030004C91969794966C9109959ACFF601858577
:101040008823F9F0813041F1D6011E968D919C9153
:10105000892B09F48DCF0F900F900F900F90DF9197
:10106000CF911F910F91FF90EF90DF90CF90BF90A5
:10107000AF909F908F907F906F905F904F903F9038
:10108000089591968C9191978250990B1F969C93FD
:101090008E931E971D965C9229813A818B819C814B
:1010A000782F692FF601468557854115510581F046
:1010B00001962115310539F041505109578746876E
:1010C00021503109EDCF7B836C831A821982BCCF0A
:1010D0009C838B833A8329831586B6CF0895EF923C
:1010E000FF92CF93DF93FC01E7018289823021F1E7
:1010F0006787408B9B8193709330F1F49A8197FFBF
:101100001BC02E81308D321708F4208F282F30E03D
:10111000D901AA0FBB1FA20FB31FAE0FBF1F9F7035
:1011200017969C9317979C8118969C93189794E018
:1011300019969C938F5F828BDF91CF91FF90EF90F8
:101140000895EF92FF920F9302970E946F080F91FC
:10115000FF90EF900895FC018789089570E0660F75
:10116000771F860F971FFC0185859685089581E07E
:10117000623009F080E0089581E0633009F080E09A
:101180000895FC0186810895CF93DF93EC018C8153
:101190009D81DC01ED91FC910480F581E02D6E8153
:1011A00009951F86188A81E08A8B1E821B8A1C8AF9
:1011B0001D8A1E8A1F8A80E0DF91CF9108952E98A4
:1011C00008952E9A089570E0660F771F860F971F77
:1011D000FC015687458781E0089590917502892F1B
:1011E000846098130C944904089590917502892F96
:1011F0008B7F92FD0C944904089590917502892F7C
:10120000826098130C944904089590917502892F77
:101210008D7F91FD0C944904089590917502892F5A
:10122000816098130C944904089590917502892F58
:101230008E7F90FD0C9449040895FB0162818181A9
:101240000C94ED0380E00895089580E008950895DA
:101250000F931F93CF93DF93D82FC62F8A0180E57A
:1012600091E00E9477010E94DF08D260DEBDF801A4
:101270008C2F882339F00DB407FEFDCF91919EBDD0
:101280008150F7CFC00FD12FD11D0DB407FEFDCF78
:101290000E94E108CE01DF91CF911F910F91089537
:1012A0000F931F93CF93DF9300D0CDB7DEB7182FE6
:1012B000062F80E591E00E9477010E94DF0812600E
:1012C00019830A8362E070E0CE0101960E948106D4
:1012D0000E94E1080F900F90DF91CF911F910F9125
:1012E00008959F92AF92BF92CF92DF92EF92FF92BA
:1012F0000F931F93CF93DF936C01C42FD22F9924A8
:101300009394E62EF12CEE0CFF1CE80EF91E86E5F8
:10131000E80EF11CA42EB12CABE2AA0EB11CAA0C53
:10132000BB1CAC0CBD1CF70180819181DC01ED91EF
:10133000FC910280F381E02D202F4D2F6C2F099519
:10134000182F803EC9F5C1112BC061E088EE0E94C4
:10135000500966E670E080E090E00E942103F7010A
:1013600080819181DC01ED91FC910190F081E02D73
:10137000202F4D2F6C2F0995182F8D30D1F58FEF21
:10138000890D8330F8F0C11137C061E088EE0E940A
:10139000500966E670E080E090E00E9421031CC0E6
:1013A000F50180819181DC01ED91FC910284F3854E
:1013B000E02D6D2F0995D3CF8D3061F48FEF890D1E
:1013C000833050F464E670E080E090E00E942103F6
:1013D0009394A9CF882319F2812FDF91CF911F9188
:1013E0000F91FF90EF90DF90CF90BF90AF909F90C4
:1013F0000895882389F3C7CF8C2F90E08B96880FB0
:10140000991F8C0D9D1DFC0180819181DC01ED9166
:10141000FC910284F385E02D6D2F0995DDCF8EBD03
:1014200000000DB407FEFDCF8EB50895CF93C82FF1
:1014300080E591E00E9477010E94DF088C2F0E94D6
:101440000F0A80E00E940F0AC82F0E94E1088C2F2B
:10145000CF9108958F929F92AF92BF92CF92DF92D9
:10146000EF92FF920F931F93CF93DF93882E962EC8
:101470005A010E9465046B017C0128E8C20E23E139
:10148000D21EE11CF11C10E000E0D0E0C0E0982882
:101490000E9465046C197D098E099F0997FF1EC083
:1014A000692D80EF0E9450090E9465046C197D0926
:1014B0008E099F0997FF09C088EC0E94160A87FFD2
:1014C000F3CF60E888EC0E94500988EF0E94160A6A
:1014D000C82FCF70C43081F0CE30B9F08C2FDF919F
:1014E000CF911F910F91FF90EF90DF90CF90BF9021
:1014F000AF909F908F9008950F5F1F4FA114B1047C
:1015000039F20A151B0521F6E9CFDF5FD33009F068
:10151000BFCFE4CFAF92BF92CF92DF92EF92FF9214
:101520000F931F93CF93DF93EC01B62EA42E690186
:101530000E9412077C0186EDE114F10409F447C012
:10154000D701ED91FC91119787ED309709F43FC0D9
:1015500013969C9180E0981731F02081A21629F013
:1015600033968F5FF8CFF0E0E0E0D601ED93FC9387
:101570008BED309761F1228126952695203108F078
:101580002FE081E090E0A0E0B0E004C0880F991F58
:10159000AA1FBB1F2A95D2F70197F8019183808378
:1015A0006B2D80EE0E94500988ED0E94160AD7012B
:1015B00014969C91682F697F992329F0CA58DF4FB0
:1015C00068816260682B88ED0E94500980E0DF919D
:1015D000CF911F910F91FF90EF90DF90CF90BF9030
:1015E000AF90089588EF0E94160A807C8034B1F095
:1015F00018F4882301F10895803819F0803CC9F06F
:10160000089588ED0E94160A81FD0DC069EC88EDF1
:101610000E94500982E08093FD01089588ED0E94A8
:10162000160A81FDF3CF6BEC88ED0E94500983E030
:10163000F2CF81E0F0CF61ED88ED0E945009109269
:10164000FD0108952F923F924F925F926F927F9289
:101650008F929F92AF92BF92CF92DF92EF92FF92C2
:101660000F931F93CF93DF937B013A016901F90137
:10167000A080B180FB013180F90111821082FB0151
:10168000828160E181FD60E288EE0E9450092A2C8F
:10169000A301F701608180E00E942A0A582EF6E03B
:1016A0008F1310C088EF0E94160AF70192819D7F68
:1016B00084FF9260928360E191FD60E288EE0E9477
:1016C0005009E6CF811150C088EC0E94160A82FFB3
:1016D0005FC080E30E94160A482E8A151B0411F091
:1016E00008F0422CF60180819181E501C81BD90BDD
:1016F000D7FF02C0D0E0C0E0842C912C8C169D0650
:101700000CF4E40180E591E00E9477010E94DF087B
:1017100088E00E940F0AAE0170E060E0C8010E94FC
:10172000FA22209721F0BE01C8010E9481060C0F09
:101730001D1F0E94E10864E088EC0E945009F60138
:1017400080819181880E991E91828082431420F0BD
:101750008A149B0408F49CCF88EF0E94160AF701B4
:10176000928184FB91F99283852DDF91CF911F9116
:101770000F91FF90EF90DF90CF90BF90AF909F9030
:101780008F907F906F905F904F903F902F90089533
:1017900080EF582EE9CFAF92BF92CF92DF92EF92B7
:1017A000FF920F931F93CF93DF9300D000D0CDB75C
:1017B000DEB77C01690158011C821B821A821982E2
:1017C0008E010F5F1F4F9E012D5F3F4F0E948A0ABF
:1017D000811109C049815A816B817C818501960103
:1017E000C7010E94220B0F900F900F900F90DF9176
:1017F000CF911F910F91FF90EF90DF90CF90BF900E
:10180000AF9008952F923F924F925F926F927F9286
:101810008F929F92AF92BF92CF92DF92EF92FF9200
:101820000F931F93CF93DF93CDB7DEB765970FB6B6
:10183000F894DEBF0FBECDBF3C01342E222E402EC9
:10184000ED8AEAA4FBA4188A1F861E861D868E01D7
:10185000035F1F4F9E01215F3F4F40E00E948A0AB5
:10186000582E811139C139822A824B822D892C83CD
:10187000DE82CD82B886AF82AE014F5F5F4F68E0F7
:1018800080E20E9428094D855E8560E080E10E942B
:101890002A0A81113FC1E114F10409F453C00F85F4
:1018A0001889D80112968C91129737FE51C0826028
:1018B00012968C93650144244394C114D10409F415
:1018C0002EC19C868B864D855E856F8578898701C4
:1018D0009E01255F3F4FC3010E94220B582EB6E0A8
:1018E0008B130EC088EF0E94160AEF85F88985FBDE
:1018F000882780F98425928180FB91F99283DDCF3E
:101900008111EAC0ECA5FDA53097A1F06B857C851F
:101910000190F081E02D0190F081E02DC5018C193E
:101920009D099A8789879E01275F3F4FA7018CA554
:101930009DA509958B859C85C81AD90A8815990596
:1019400008F0BBCF4D855E8537FEE0C080EADFC082
:10195000816012968C93129711966C908FEF860D82
:10196000803408F0D9C02D843E840E9465049B0118
:10197000AC0128573C4E4F4F5F4F298B3A8B4B8B16
:101980005C8BD80112968C9160E880FF60E488EE51
:101990000E945009512C712C8114910409F48BC0C0
:1019A00053018614970408F45401AD8AA7016A2DE7
:1019B00080E10E9428096A2D88E30E945009F801FD
:1019C0006081606280EF0E94500988EC0E94160AD4
:1019D00087FFFBCF60E888EC0E94500988EF0E94E7
:1019E000160A8F70582E412CD12CC12C552021F174
:1019F0000E94650429893A894B895C89621B730BB3
:101A0000840B950B97FF18C036E0531609F43FC0BE
:101A10004EE05416B1F054E0551209C08FEFC81AC9
:101A2000D80A2114310489F02C143D0471F460E0CB
:101A300088E30E94500941C08A189B08EA0CFB1CED
:101A4000ABCF439493E0491691F360E088E30E94A2
:101A50005009D7016C9180E10E9450096D8988E39B
:101A60000E945009F8016081606280EF0E94500975
:101A700088EC0E94160A87FFFBCF60E888EC0E9482
:101A8000500988EF0E94160A8F70582EAFCF88EF4A
:101A90000E94160A85FB882780F9A1E08A27F801B1
:101AA000928180FB90F9928360E890FF60E488EE79
:101AB0000E945009CACF5110BACF88EF0E94160A6F
:101AC000D80112969C91129785FB90F912969C93DF
:101AD0004D855E855520D1F0852D65960FB6F8941D
:101AE000DEBF0FBECDBFDF91CF911F910F91FF9051
:101AF000EF90DF90CF90BF90AF909F908F907F90AE
:101B00006F905F904F903F902F90089580E860E035
:101B10000E942A0A582EE0CF8AED582EDDCF4D853F
:101B20005E85552009F412CFD7CF8F929F92AF9246
:101B3000BF92CF92DF92EF920F931F931F921F924B
:101B40001F930F934A015A01D12CC12C32E0E32E8E
:101B5000022F26E040E80E94020C0F900F900F9099
:101B60000F901F910F91EF90DF90CF90BF90AF90AB
:101B70009F908F9008958F929F92AF92BF92CF9235
:101B8000DF92EF920F931F921F923F932F934A0180
:101B90005A01D12CC12CEE24E39400E026E040E869
:101BA0000E94020C0F900F900F900F900F91EF90EA
:101BB000DF90CF90BF90AF909F908F9008958F92BD
:101BC0009F92AF92BF92CF92DF92EF920F93CF93FB
:101BD0001F921F921F921F92912C812CB12CA12C2D
:101BE000D12CC12CE12C062F25E040E060E00E94C2
:101BF000020CC82F6CE271E080E090E00E942103AB
:101C00000F900F900F900F908C2FCF910F91EF901E
:101C1000DF90CF90BF90AF909F908F9008952F92BC
:101C20003F924F925F926F927F928F929F92AF926C
:101C3000BF92CF92DF92EF92FF920F931F93CF93B9
:101C4000DF93CDB7DEB767970FB6F894DEBF0FBE50
:101C5000CDBF1B8A38E03C8B3CE33D8B8A3F3FEF96
:101C60009307D9F406ED802F67960FB6F894DEBF80
:101C70000FBECDBFDF91CF911F910F91FF90EF90DD
:101C8000DF90CF90BF90AF909F908F907F906F909C
:101C90005F904F903F902F900895122F342E462E34
:101CA0007C01DC011696CD90DC901797CE0143960F
:101CB00017969C938E9316971A962C939E012F5FDE
:101CC0003F4F42E150E060E0C7010E94BB0D582E3B
:101CD000F701D782C682082F8111C5CF89849A84E3
:101CE0006B847C84FD81FE8B3E813F8B670186E5A2
:101CF000C80ED11C5601212CD5018D919C910097C5
:101D0000F1F52394B2E0AB0EB11CE0E12E12F4CF5A
:101D1000F60180819181009709F070C05394F2E040
:101D2000CF0ED11C30E15312F3CFF701868197819A
:101D300007ED892B09F497CF1287232D40E0642DFE
:101D4000C7010E94BD06D82E04ED882309F48BCF6D
:101D5000682FC7010E941207009709F483CFDC01A6
:101D600014961C936D2DC7010E94DF0D082F882348
:101D700009F479CF6D2DC7010E949B0674CFDC0159
:101D8000ED91FC910084F185E02D09958111B9CF89
:101D9000F50180819181DC01ED91FC910088F18950
:101DA000E02D6F890995882309F4ABCFF501808177
:101DB0009181DC01ED91FC910484F585E02DA30176
:101DC000B4010995882361F0012F232D442D622D44
:101DD000C7010E947109082F813D09F492CF43CFBA
:101DE000F50180819181DC01ED91FC910684F785FC
:101DF000E02D6E8909958111E7CF83CFDC01ED914C
:101E0000FC910084F185E02D0995811187CFF601C1
:101E100080819181DC01ED91FC910088F189E02DB8
:101E20006F89099581110DC0012F232D442D652D3A
:101E3000C7010E947109082F877F813D09F013CFE8
:101E40006DCFF60180819181DC01ED91FC910484DC
:101E5000F585E02DA301B401099581115FCFF6014D
:101E600080819181DC01ED91FC910684F785E02D64
:101E70006E8909958823C1F251CF8F929F92AF92BC
:101E8000BF92CF92DF92EF920F93C42ED12C1F926C
:101E90001F921F921F92912C812CB12CA12CE12C0E
:101EA000062F21E043E2FC016285828193810E943A
:101EB000020C0F900F900F900F900F91EF90DF900A
:101EC000CF90BF90AF909F908F9008958F929F92E8
:101ED000AF92BF92CF92DF92EF920F93C62ED12C8A
:101EE0001F921F925F934F9324E0822E912C34E037
:101EF000A32EB12CE12C00E020E043EAFC01628536
:101F0000828193810E94020C0F900F900F900F908E
:101F10000F91EF90DF90CF90BF90AF909F908F90F8
:101F200008958F929F92AF92BF92CF92DF92EF92DD
:101F30000F93C42ED12C1F921F921F921F92912C8F
:101F4000812CB12CA12CE12C062F23E043E2FC01D3
:101F50006285828193810E94020C0F900F900F90F6
:101F60000F900F91EF90DF90CF90BF90AF909F9028
:101F70008F900895CF92DF92EF92FF921F93CF93AD
:101F8000DF93EC01162F7A01FA0180819181A28101
:101F9000B3818130F3E09F07F1E0AF07B105C9F1EC
:101FA00070F48115E1E09E07AE07B10509F450C059
:101FB00081309140A140B10561F180E041C08330A2
:101FC00021E0920720E1A207B10529F08330934078
:101FD000A041B10591F7412F64E1CE010E943D0F70
:101FE000412F60E1CE010E943D0F64E170E080E08E
:101FF00090E00E9421036A85F701218126952170D6
:102000006770412F8A819B810E940F0E1092D80128
:10201000D4CF8091D8018111D0CF412F61E1CE0181
:102020000E943D0F412F60E1CE010E943D0F412FE4
:1020300064E0CE010E94910F81E08093D80181EB92
:10204000DF91CF911F91FF90EF90DF90CF90089597
:10205000462F61E1CE010E943D0F412F60E1CE018C
:102060000E943D0F1092D8018A8587701770880FE3
:10207000880F880F182B09F4A0CFEA80FB80670136
:10208000F6E5CF0ED11CD0E0C0E0D6018D919D9138
:102090006D010097C1F0DC01ED91FC910084F185A8
:1020A000E02D099518130FC0AB96CC0FDD1FCE0D98
:1020B000DF1D88819981DC01ED91FC910480F5811F
:1020C000E02D09957ACF2196C031D105F1F675CF73
:1020D000CF92DF92EF92FF920F931F93CF93DF93F4
:1020E000CDB7DEB72E970FB6F894DEBF0FBECDBFCB
:1020F000FC012089211111C010E0812F2E960FB60E
:10210000F894DEBF0FBECDBFDF91CF911F910F912D
:10211000FF90EF90DF90CF9008957C010E946504BE
:10212000F7010485158526853785601B710B820BA9
:10213000930B97FDE1CF81E090E09E878D878E0124
:102140000F5F1F4F9E01235F3F4F41E062858281F9
:1021500093810E94CB0B182F811121C082E0D82ED1
:1021600001E089818D2139F119861A861B861C862A
:10217000AE01475F5F4F602FC7010E94660FC82EF8
:10218000811119C0AE01475F5F4F602FC7010E94E8
:10219000BA0F813B19F0882371F0C82E1C2D0E94C4
:1021A00065046C597F4F8F4F9F4FF7016487758788
:1021B00086879787A2CFDD0C0F5F083091F601E08C
:1021C000F7018385801758F319861A861B861C86AB
:1021D000AE01475F5F4F602FC7010E94660FD82E88
:1021E000811117C089859A858770917081309140DF
:1021F00081F48B859C8581609C878B87AE01475FCE
:102200005F4F602FC7010E94BA0F813B29F08111F7
:1022100002C00F5FD5CFD82E1D2DC1CFCF92DF9238
:10222000FF920F931F93CF93DF9300D000D0CDB7D1
:10223000DEB78C01F62E19821A821B821C82462F71
:1022400061E10E943D0F4F2D60E1C8010E943D0FEA
:102250004F2D64E0C8010E94910F83E0C82ED12C5D
:10226000AE014F5F5F4F6F2DC8010E94660F811155
:1022700014C089819A81AB81BC819D7F833091405C
:10228000A041B10551F064E670E080E090E00E946A
:10229000210381E0C81AD10819F74F2D64E1C80164
:1022A0000E943D0F4F2D60E1C8010E943D0F64E187
:1022B00070E080E090E00E9421030F900F900F905B
:1022C0000F90DF91CF911F910F91FF90DF90CF90F2
:1022D00008952F923F924F925F926F927F928F92CA
:1022E0009F92AF92BF92CF92DF92EF92FF920F93A5
:1022F0001F93CF93DF93CDB7DEB7E8970FB6F8946F
:10230000DEBF0FBECDBFDC011A963C91311131C149
:10231000522E842E962E3C01FC01E280F380D701E0
:10232000ED91FC910190F081E02D60E0C7010995ED
:102330008C010097E1F4E6ED3E2E832DE8960FB672
:10234000F894DEBF0FBECDBFDF91CF911F910F91EB
:10235000FF90EF90DF90CF90BF90AF909F908F90C5
:102360007F906F905F904F903F902F900895FC0169
:10237000C080D18037ED332EC114D104F1F2530166
:10238000F4E0AF0EB11CDC011196BC92AE92149633
:102390005C92FE0131962F019F0148E050E060E021
:1023A000D30112968D919C910E94BB0D382EF8019D
:1023B00014828111E1C08D8121ED322E893009F026
:1023C000BCCF2980D701ED91FC910280F381E02DF3
:1023D000282D41E0692DC7010995F301828794ED0D
:1023E000392E882309F4A9CF98859583682F828197
:1023F00093810E94DF0D382ED801CD92DC92882384
:1024000071F0D701ED91FC910480F581E02DD301AD
:102410001A966C91C7010995F30112868ECF21108F
:1024200006C0A114B10499F488ED382E86CF422D50
:10243000413208F040E250E09201F301628582816E
:1024400093810E94BB0D382E811177CFEACFD30143
:1024500012962D903C9013971A961C91612FC101F2
:102460000E941207FC01892B09F465CF1283B18207
:10247000A08282E083831F921F925F924F9258E066
:10248000852E912C68E0A62EB12CD12CC12C79E29E
:10249000E72E00E026E040EA612FC1010E94020C15
:1024A000382E0F900F900F900F90811146CF8B8197
:1024B000F3018387820120E048E050E06285828159
:1024C00093810E94950D382E811137CF4B815C810D
:1024D00020E0D3011A966C911A9712968D919C91D7
:1024E0000E94950D382E811128CF498150E08E0130
:1024F0000F5D1F4F20E0F3016285828193810E946E
:10250000950D382E811119CF1F921F921F921F9285
:10251000912C812CB12CA12CE12C0E8129E040E0E2
:10252000D3011A966C911A9712968D919C910E94E4
:10253000020C382E0F900F900F900F908111FDCE4E
:1025400011E0F3018385811738F0412F68E0C30162
:102550000E94910F1F5FF5CFD3010280F381E02D20
:10256000EA58FF4F80818460808381E050968C938D
:10257000E4CE49ED342EE1CED182C082DECE2F9260
:102580003F924F925F926F927F928F929F92AF9203
:10259000BF92CF92DF92EF92FF920F931F93CF9350
:1025A000DF93CDB7DEB7C358D1090FB6F894DEBFBD
:1025B0000FBECDBFDC0116963C9119ED311115C04F
:1025C000B22E042FA62E3C01FC0124803580108EF3
:1025D000D101ED91FC910190F081E02D60E0C1010D
:1025E00009952C010097E1F416ED812FCD57DF4FAF
:1025F0000FB6F894DEBF0FBECDBFDF91CF911F9114
:102600000F91FF90EF90DF90CF90BF90AF909F9091
:102610008F907F906F905F904F903F902F90089594
:10262000FC01E080F18017EDE114F104F1F2930177
:10263000295F3F4FEE963FAF2EAFEE973183208359
:10264000B4829E0126593F4F48E050E060E0D3013C
:1026500014968D919C910E94BB0D182F811187C1FA
:10266000AB961FADAB97F201F182E082D101ED9103
:10267000FC910280F381E02D202F40E06A2DC10102
:102680000995F3018683882309F46FC1E2969FAD13
:10269000E2979087682F848195810E94DF0DF82E44
:1026A000D101ED91FC91882379F0D20114961C920E
:1026B0000480F581E02DD30116966C91C101099536
:1026C000F30116821F2D91CFD30116966C91D20182
:1026D00014961C920190F081E02DC101099500979C
:1026E00009F482CFFC01B48211118CC0EC96FFADCD
:1026F000EC97CF57DF4FF883C158D0402E0121E42B
:10270000420E511CC3010296CE57DF4F9983888336
:10271000C258D040120190E1290E311CCF57DF4F33
:10272000B881C158D040FB1609F48AC02DE131E0D0
:10273000F20131832083CE57DF4F88819981C258BF
:10274000D040938382831482118612861586178661
:10275000168610A211A212A210A6368225823086F9
:10276000278234862386D30114960D90BC91A02D28
:10277000C258DF4FB983A883CE57D040F301F6810A
:10278000C058DF4FF883C058D0408E010F5F1F4FF5
:102790002F2D49E050E06F2FCD010E94950D811142
:1027A0002AC0AB80BC80450121E4A216B10418F018
:1027B00040E4842E912C5F924F9281E090E08C0F48
:1027C0009D1F9F938F93D12CC12C32E0E32E0F2DB0
:1027D00026E040E8C058DF4F6881C058D040C2585A
:1027E000DF4F88819981CE57D0400E94020C0F9014
:1027F0000F900F900F90D30152968C91823001F17F
:10280000F3948CCF133108F012E1412F50E09E0178
:1028100026593F4FD30116966C91169714968D91B9
:102820009C910E94BB0D182F882309F45FCFD30120
:10283000ED91FC910480F581E02DC3010995D5CE81
:10284000F3011289123009F08EC0848195810681CE
:10285000EE962EAD3FADEE97232B71F0602F0E94C8
:102860001207FC01892B41F00283EE968EAD9FADDD
:10287000EE9791838083138368EE73E080E090E0AD
:102880000E9421031F921F921F921F92912C812C54
:10289000B12CA12CD12CC12CE12CD3011F960C9171
:1028A0001F9729E040E016966C91169714968D912B
:1028B0009C910E94020C182F0F900F900F900F9078
:1028C0008111B5CF68EE73E080E090E00E942103B3
:1028D0001F921F921F921F92F301018D2BE041E284
:1028E0006681848195810E94020C182F0F900F90B1
:1028F0000F900F9081119BCF1F921F921F921F92DA
:1029000000E02AE041E2D30116966C9116971496E6
:102910008D919C910E94020CFE01EF5BFF4F83E2C0
:1029200091E091838083FF93EF93CE0101969F9373
:102930008F9380E4882E912C90E8A92EB12C22E26E
:10294000E22E26E041E8F3016681848195810E94B0
:10295000020C81E0D30157968C930FB6F894DEBF3A
:102960000FBECDBF42CE11ED62CF14ED3ECEF201CF
:10297000F182E0825CCFCF93DF93FC0101900020D5
:10298000E9F73197AF01481B590BBC018EEF91E07D
:102990000E944F04EC0142E050E06BE971E08EEFE1
:1029A00091E00E944F048C0F9D1FDF91CF910895FD
:1029B0000F931F93CF93DF93EC0188819981009748
:1029C00059F02A813B812617370730F081E0DF91EB
:1029D000CF911F910F9108958B016F5F7F4F0E94E0
:1029E0003422009759F0998388831B830A832C81B2
:1029F0003D81232B59F7FC011082E8CF80E0E7CF1F
:102A0000CF93DF93EC0188819981009711F00E94A8
:102A1000AB21198218821D821C821B821A82DF91CF
:102A2000CF910895CF93DF93EC0170E060E00E94B6
:102A3000D814811105C0CE01DF91CF910C940015FF
:102A40001D821C826DE971E088819981DF91CF91AF
:102A50000C9415239F92AF92BF92CF92DF92EF9288
:102A6000FF920F931F93CF93DF93EC016B015A01F9
:102A700079012417350720F48B2D5901E42EF82E07
:102A8000198218821B821A821D821C82CE010E942A
:102A90001215D60114960D911C91A016B10658F589
:102AA000E016F10608F48701D601ED91FC9111972B
:102AB000E00FF11F90801082ED90FC90EA0CFB1C5F
:102AC000E114F10471F0F70101900020E9F731976A
:102AD0005F01AE18BF08B501CE010E94D814811164
:102AE00017C0CE010E940015F60180819181080F68
:102AF000191FD8019C92CE01DF91CF911F910F91A8
:102B0000FF90EF90DF90CF90BF90AF909F9008958F
:102B1000BD82AC82B701888199810E941523E4CFE0
:102B2000FC0180819181009711F00C94AB210895F4
:102B30006F927F928F929F92AF92BF92CF92DF92CD
:102B4000EF92FF920F931F93CF93DF9300D0CDB7F7
:102B5000DEB77C01CDB6DEB6DC0157968C918111D3
:102B600018C0912C892D0FB6F894DEBE0FBECDBED5
:102B70000F900F90DF91CF911F910F91FF90EF90E9
:102B8000DF90CF90BF90AF909F908F907F906F908D
:102B900008950E946504F70183889488A588B68803
:102BA000681979098A099B0997FDDBCFADB6BEB6D6
:102BB0004285838590E08134910508F045C09A8371
:102BC000898389819A812DB73EB7281B390B0FB6AF
:102BD000F8943EBF0FBE2DBF8DB79EB701968C01F6
:102BE0009E012F5F3F4FD70116966C911697149652
:102BF0008D919C910E94CB0B982E811113C029813D
:102C00003A812330310570F0F7018585968500976C
:102C100049F0DC01ED91FC910190F081E02D40E064
:102C2000B70109950FB6F894BEBE0FBEADBE0E94A7
:102C30006504F701208D620F711D811D911D638B4D
:102C4000748B858B968B8ECF80E490E0B8CF1F92EB
:102C50000F920FB60F9211248F939F938091E100F2
:102C60009091E100937F9093E10083FF0FC0109259
:102C7000E90091E09093EB001092EC0092E39093C6
:102C8000ED001092FC0198E09093F00082FF22C0CA
:102C900093E09093E9009091F200992319F09AE360
:102CA0009093E8009091F301992341F09091F30102
:102CB00091509093F301911101C05D9A9091FB01A5
:102CC000992341F09091FB0191509093FB01911158
:102CD00001C0289A84FF18C08091E2008E7E816036
:102CE0008093E2008091E1008F7E8093E1008091EB
:102CF000F4018E7E80618093F4019F918F910F90FB
:102D00000FBE0F901F90189580FFF7CF8091E200C3
:102D10008E7E80618093E2008091E1008E7E8093C0
:102D2000E1008091F4018E7E8160E5CF1F920F92C9
:102D30000FB60F921124CF92DF92EF92FF920F9372
:102D40001F932F933F934F935F936F937F938F9333
:102D50009F93AF93BF93EF93FF93CF93DF93CDB741
:102D6000DEB76C97DEBFCDBF1092E9008091E8001E
:102D700083FF25C068E0CE0145960E94280282EFBD
:102D80008093E8008D8987FF39C09091E80090FF1B
:102D9000FCCF982F907609F034C19E894F89588DC9
:102DA0002F89F88C911131C0803861F58091F5013F
:102DB0008093F1001092F1008EEF8093E8006C9602
:102DC0000FB6F894DEBF0FBECDBFDF91CF91FF915C
:102DD000EF91BF91AF919F918F917F916F915F9193
:102DE0004F913F912F911F910F91FF90EF90DF90A6
:102DF000CF900F900FBE0F901F9018959EEF90935D
:102E0000E800C7CF1092F100D5CF913059F481116D
:102E1000D3CF4130510581F68091F5018D7F8093AC
:102E2000F501CACF933049F48111C6CF4130510525
:102E300019F68091F5018260F2CF953041F48091CE
:102E4000E80080FFFCCF20682093E300B5CF9630E8
:102E500009F0A9C00B8D1C8D22E01092E9001092A0
:102E6000F1011092F001F2122EC01092EF011092B7
:102E7000EE010E9449021F8299E09983FA8291E053
:102E80009E8390EA98879AEF99872091F00130917C
:102E9000F101275F3F4F3C832B838D831092E90024
:102EA0001092F1011092F0011093EF010093EE01E6
:102EB00049E050E0BE016F5F7F4F80E00E94F1016A
:102EC0000E94490279CF1093EF010093EE010E9416
:102ED0003502DC0112960D911C910115110509F4C2
:102EE00051C1D801ED91FC910480F581E02DBE0126
:102EF0006B5E7F4FC8010995009709F03EC1F8014C
:102F000000851185EACFF3E0FF120EC08F89882378
:102F100009F440C0823061F440E860E18BE491E064
:102F20000E941219811148CF81E28093EB0047CFB4
:102F3000813029F440E86BE08FE391E0F1CF8330FA
:102F400099F70E943502DC011296ED90FC908E01FB
:102F50000F5F1F4F6801E114F10479F0D701ED9183
:102F6000FC910680F781E02DB801C7010995080F93
:102F7000111DF701E084F184EECFD8011C92F60117
:102F800001900020E9F73197BF016C197D0940E0FD
:102F9000C601C6CF69E271E0FB01449150E080E8D0
:102FA0000E94F10109CF973009F4BECF983021F487
:102FB00081E08093F10000CF993009F0FDCE83705D
:102FC00009F0B2CFEDE0F1E081E031E096E321914C
:102FD000222371F08093E9003093EB00DF01119719
:102FE0002C912093EC009093ED008F5F873079F760
:102FF0008EE78093EA001092EA008F898093FC01AB
:10300000DBCE8B8D9C8D1092E9001092F101109215
:10301000F0019093EF018093EE01898D811192C0B0
:103020008E899D89913A49F4813209F07DCF47E03C
:1030300050E064E071E080E0B3CF913209F074CFEA
:10304000833269F48F89988DB0E0A0E0809300010D
:1030500090930101A0930201B0930301ADCE8032A1
:1030600069F48091E80082FFFCCF67E084E091E0A2
:103070000E9428028BEF8093E8009ECE823209F0F6
:103080009BCE8F8980930B01EEEFFFE785919491A2
:103090008B3F9C4D51F1E0E0F8E08091040190916C
:1030A0000501A0910601B0910701803B9440A10564
:1030B000B105F1F480910B0180FD1AC0EE3F8AE06A
:1030C000F80789F587E797E791838083809160000F
:1030D0008093F20188E19BE00FB6F894A895809365
:1030E00060000FBE9093600067CEEEEFFAE0D5CFA0
:1030F000808191818737974709F05ECEA8958091AE
:1031000060008861809360008091F201809360008C
:10311000EE3F2AE0F20789F08091FE0A9091FF0AC3
:103120009183808349CE808191818737980751F2BE
:103130009093FF0A8093FE0AC5CF1092FF0A109267
:10314000FE0A3ACE0E943502DC0112960D911C91C6
:103150000115110509F4E8CED801ED91FC9101901B
:10316000F081E02DBE016B5E7F4FC8010995811192
:1031700023CEF80100851185EBCF181619060CF443
:103180001BCED2CEF1E0FF12BECE6DE271E004CFD5
:103190001F920F920FB60F9211242F933F938F938C
:1031A0009F93AF93BF938091DA019091DB01A0913F
:1031B000DC01B091DD013091D90123E0230F2D37DF
:1031C00058F50196A11DB11D2093D9018093DA0114
:1031D0009093DB01A093DC01B093DD018091DE01CF
:1031E0009091DF01A091E001B091E1010196A11D54
:1031F000B11D8093DE019093DF01A093E001B093B5
:10320000E101BF91AF919F918F913F912F910F90CD
:103210000FBE0F901F90189526E8230F0296A11D50
:10322000B11DD2CFEF92FF920F931F93CF93DF93F5
:10323000F82E192FE62E042F81E0860F880F0E94AA
:10324000C30183E00E94C301CF2DD12FEC0EFD2ED0
:10325000F11CCE15DF05B9F007FF13C0FE01849104
:103260000E94C301182F80E00E94C3018123219690
:103270008111EFCFDF91CF911F910F91FF90EF90D0
:1032800008958881EDCF81E0F5CFCF9310920102B0
:103290001092000288EE93E0A0E0B0E0809302027A
:1032A00090930302A0930402B093050289E291E097
:1032B0009093FF018093FE018FEF9FEF90930B029D
:1032C00080930A021092750280916D02811113C0E1
:1032D000109268021092670285ED91E090936A0265
:1032E0008093690286E390E090936C0280936B0276
:1032F00081E080936D0280915F0281112AC0C1E05C
:10330000C0935202C093530288E592E09093550215
:103310008093540210925702109256028BE391E070
:1033200090934F0280934E0210925A0210925902CB
:1033300010925C0210925B02C0935D02C0935E0229
:1033400081EC809358020E9435020E943101C093A3
:103350005F02E0915902F0915A02309709F0D1C012
:1033600087E692E090935A028093590280915B0223
:1033700090915C0220916B0230916C02820F931F3E
:1033800090935C0280935B0281E891E09093A802A5
:103390008093A7021092AF0281E08093B002109256
:1033A000B10289EA92E09093AE028093AD0210924E
:1033B000A90288E08093AA028CE38093AB0210926A
:1033C000AC02E7EAF2E091E029EA32E0158696875E
:1033D000178634872387359682E0E23FF807B1F7F6
:1033E00010921D0381E1809376022BE631E0309349
:1033F00097022093960227EA32E0309399022093B5
:1034000098021092A60210929A0288E080939B0282
:103410002CE320939C0290939D0280939E0284E073
:1034200080939F021092A0021092A1021092A20219
:103430001092A3021092A4021092A502ADEFB2E086
:10344000FD0190E080E021913191232B09F062C0D1
:10345000880F991FFC01E350FD4F86E992E09183AC
:10346000808387EA92E0909381028093800287E4D0
:1034700091E090937D0280937C0285E691E09093A9
:103480007F0280937E0210928F021092900210921F
:10349000910210929202109293021092950281E092
:1034A00080938E0210928D021092830288E08093A6
:1034B00084028CE380938502109286021092870228
:1034C00084E0809388021092890210928A021092FE
:1034D0008B0290E080E02D913D91232B09F5880F20
:1034E000991FFC01E350FD4F8CE792E091838083AC
:1034F0008BE891E09093780280937702CF910895C2
:10350000FC01808191810097D9F787E692E0918351
:1035100080832CCF01968031910509F094CFA1CF03
:10352000019680319105B9F6E3CFCF93DF93CDB704
:10353000DEB72C970FB6F894DEBF0FBECDBF7894E0
:1035400084B5826084BD84B5816084BD85B58260A8
:1035500085BD85B5816085BD80916E008160809359
:103560006E001092810080918100826080938100C2
:1035700080918100816080938100809180008160D2
:10358000809380008091910082608093910080916F
:103590009100816080939100809190008160809380
:1035A00090008091C10084608093C1008091C1002F
:1035B00082608093C1008091C10081608093C100CE
:1035C0008091C30081608093C3008091C0008260BD
:1035D0008093C0008091C20081608093C20080917E
:1035E0007A00846080937A0080917A008260809370
:1035F0007A0080917A00816080937A0080917A00CD
:10360000806880937A001092FC011092F50110926C
:10361000F4018091D70081608093D70080EA809385
:10362000D80089B5806189BD89B5826089BD09B43A
:1036300000FEFDCF61E070E080E090E00E94210399
:103640008091D8008F7C80618093D8008091E000C9
:10365000807F8093E0008091E1008E7E8093E10086
:103660008DE08093E200559A209A8FEF9FEF909320
:103670000B0280930A020E9465046B017C01109189
:103680000B016AE070E080E090E00E9421031111DC
:103690000BC00E9465046C197D098E099F09683E64
:1036A00073408105910558F3269A0E94E1081FB7DF
:1036B000F8948091F60181115AC048EA51E0FA016C
:1036C000949127EC31E0F9018491E92FF0E0EE0FBD
:1036D000FF1FE757FE4FA591B4919C91892309F0F4
:1036E00037C0EDE6F1E09491F9012491FA0184915B
:1036F000882309F42DC09923E9F091509F30D0F42C
:10370000E92FF0E0EA57F44E0C9409213F1C431CCA
:10371000951B371C3B1C9A1B9A1B9A1B461C4C1C66
:10372000501C541C5A1C9A1B5E1C909180009F7761
:1037300090938000E82FF0E0EE0FFF1FE558FE4F5A
:10374000A591B4918FB7F8949C91292B2C938FBF9E
:1037500081E10E947A018CB580618CBD8CB580645A
:103760008CBD8FE00E947A0180E10E947A018091F5
:10377000F6018F5F8093F6011FBF209A289A259843
:1037800068E188E80E94500960E288E70E945009D9
:1037900060E088E70E94500910E000E088E60E949F
:1037A000160A0F5F1F4F80FF8FC061EC88ED0E94EB
:1037B000500960E680ED0E94500964E088EE0E94A6
:1037C000500988EE0E94160A82FFFBCF0E94F20A7F
:1037D00060E288EC0E94500961E080E80E94500994
:1037E0008EE991E00E94BB1464EF71E080E090E00C
:1037F0000E94210387E792E090938A0280938902D6
:103800000FB6F894A895809160008861809360005D
:10381000109260000FBE81E1682EBB24B39490E546
:10382000A92E20E9922E30EA832E40E8742E83B12F
:10383000182F107285FD0CC088EC0E94160A85FFB7
:1038400003C00E94F20A10E2612F88EC0E94500926
:103850008091FD01813009F4CFC008F4D1C08230DD
:1038600009F445C0833009F4D4C0512C57C090915D
:1038700080009F7D5DCF90918000977F59CF94B558
:103880009F7794BD57CF94B59F7DFBCF90919000CB
:103890009F77909390004ECF909190009F7DF9CFAD
:1038A00090919000977FF5CF9091C0009F77909373
:1038B000C00040CF9091C0009F7DF9CF9091C20091
:1038C000977F9093C20036CF0F3F100709F066CF65
:1038D00082EC91E00E94BB1488E198E00FB6F89466
:1038E000A895809360000FBE90936000FFCF512C8D
:1038F00080917602807F803189F40E94650468534C
:103900007F4F8F4F9F4F6093F7017093F801809323
:10391000F9019093FA0180E2809376020DEF12E0B4
:103920007801D7018D919D917D01009739F0DC01DF
:10393000ED91FC910680F781E02D0995BDE1EB1634
:10394000B3E0FB0671F780917602803409F49AC0E7
:1039500008F062C0803209F47FC0803309F48CC063
:103960008131B1F410921D03F801819191918F0181
:10397000009739F0DC01ED91FC910480F581E02D98
:103980000995B3E00D311B0779F782E18093760248
:103990008EEF91E00E94E202892B09F4C2C01886E2
:1039A0001F821A8619861C861B86CE0107960E94E6
:1039B00012150E9471040B851C8597FD97C08A30F3
:1039C000910509F493C089831A820F5F1F4FB801D4
:1039D000CE0107960E94D814882359F32F81388589
:1039E0008B859C85BE016F5F7F4F820F931F0E9466
:1039F00015231C870B87DDCF23E12093760235CF7B
:103A000080917602807F803109F42FCF6092760218
:103A10002CCF552453946CCF813509F443C08038A2
:103A200009F452C0803509F0B3CF88EC0E94160A21
:103A300086FFAECF81E5809376020E9465046C5EBE
:103A40007F4F8F4F9F4F6093F7017093F8018093E2
:103A5000F9019093FA019CCF0E9465040091F7014F
:103A60001091F8012091F9013091FA01601B710B5E
:103A7000820B930B97FD8CCF61E088EE0E9450097A
:103A800080E484CF88EE0E94160A80FD81CF88ED05
:103A90000E94160A682F686088ED0E945009A09263
:103AA000760276CF0E9465040091F7011091F8012B
:103AB0002091F9013091FA01601B710B820B930B7D
:103AC00097FD66CF70927602252D40E060E087EA90
:103AD00092E00E940F0E882331F0823D09F458CF06
:103AE0008092760255CF9092760252CF012BA9F0A8
:103AF000EF80F8846CEB71E0C7010E940C23892BE6
:103B0000C1F4B092750260E080E00E94ED03109273
:103B1000750260E080E00E94ED03CE0107960E94EE
:103B20009015E0E0F0E0EF2B09F481CE0E94000058
:103B300072CE6CE270E0C7010E940123009769F326
:103B40008C010E191F09101611063CF7980150E060
:103B500040E0BE01695F7F4FCE0101960E942A15A9
:103B600089819A81212C312C2101009721F00E941A
:103B7000E61D1B012C01CE0101960E9490152B859C
:103B80003C85A8014F5F5F4FBE01695F7F4FCE014B
:103B900001960E942A1589819A81C12CD12C760127
:103BA000009721F00E94E61D6B017C01CE01019679
:103BB0000E949015C701B6010E94D320162FC201A2
:103BC000B1010E94D320862F612FA5CF66277727CA
:103BD0000C94EA1DB0E0A0E0E0EFFDE10C9493202E
:103BE0005C017B016115710519F0DB018D939C93DC
:103BF00085010F5F1F4FF501D0818D2F90E00E944E
:103C00003A1F6C01892BB9F5DD32B9F50F5F1F4FF3
:103C1000D5011196DC91C1E05801F1E0AF1AB1086D
:103C200043E050E064EB70E0C5010E94431F892B24
:103C300069F5680182E0C80ED11C45E050E06FEAEA
:103C400070E0C6010E94431F892B21F4680197E0B0
:103C5000C90ED11CE114F10419F0D701CD92DC9208
:103C600060E070E080E89FEFC111FFC060E070E0AD
:103C700080E89FE7FAC05801BBCFDB3229F4850109
:103C80000E5F1F4FF501D181C0E0C6CF43E050E089
:103C90006CEA70E0C5010E94431F892BE9F0F8012E
:103CA00010E000E020E030E0A9015F01B0ED8B2ED4
:103CB0008D0E89E08815C8F19C2E689491F88C2FA0
:103CC0008870C2FF16C0811102C00F5F1F4F31966E
:103CD000D501DC91C92DE9CFE114F10429F00E5F83
:103CE0001F4FF7011183008360E070E080EC9FE7D5
:103CF000BCC0882311F001501109A5E0B0E00E947A
:103D000082209B01AC01220F331F441F551F280D39
:103D1000311D411D511D283999E93907490799E19C
:103D20005907A8F2C6609C2ED2CFAEEF8A1206C009
:103D3000C3FD3CC09C2E689493F8C9CFDF7DD53479
:103D4000A9F580818D3239F4C061DF01129681813D
:103D500062E070E006C0DF018B32C1F3119661E0D2
:103D600070E080535D01A61AB70A8A30F8F4E0E8E3
:103D7000CE16ECE0DE065CF4B601660F771F660F28
:103D8000771FC60ED71ECC0CDD1CC80ED11C5D01E2
:103D9000FFEFAF1ABF0A8C9180538A30A8F1C4FF9D
:103DA00003C0D194C194D1080C0D1D1DC1FF09C0E1
:103DB000E114F10431F081E0A81AB108D701AD9205
:103DC000BC92CA01B9010E94601FC370C33009F4DC
:103DD00090584B015C0120E030E0A9010E945B1F7C
:103DE000882309F440C0C3EED0E017FF05C0119549
:103DF00001951109CBECD0E06E01B8E1CB1AD108E6
:103E000080E2E82EF12C0FC0D501B1CFFE01259143
:103E10003591459154910E191F09C501B4010E94B5
:103E2000C11F4B015C01D501C4010E151F0574F7BC
:103E30002497F594E794CC16DD06A9F78A2F880F0E
:103E40008B2F881F8F3F49F020E030E0A901C5018A
:103E5000B4010E945B1F811106C082E290E0909342
:103E60001F0380931E03C501B401CDB7DEB7ECE09C
:103E70000C94AF2091110C942E20803219F08950AF
:103E80008550C8F70895FB01DC014150504088F08F
:103E90008D9181341CF08B350CF4805E659161341A
:103EA0001CF06B350CF4605E861B611171F3990B8D
:103EB0000895881BFCCF0E949D1F08F481E008959F
:103EC000E89409C097FB3EF49095809570956195B4
:103ED0007F4F8F4F9F4F9923A9F0F92F96E9BB276A
:103EE0009395F695879577956795B795F111F8CFE6
:103EF000FAF4BB0F11F460FF1BC06F5F7F4F8F4F51
:103F00009F4F16C0882311F096E911C0772321F046
:103F10009EE8872F762F05C0662371F096E8862FDE
:103F200070E060E02AF09A95660F771F881FDAF735
:103F3000880F9695879597F90895990F0008550F62
:103F4000AA0BE0E8FEEF16161706E807F907C0F01F
:103F500012161306E407F50798F0621B730B840B27
:103F6000950B39F40A2661F0232B242B252B21F401
:103F700008950A2609F4A140A6958FEF811D811DA1
:103F800008950E94D41F0C9448200E943A2038F0D3
:103F90000E94412020F0952311F00C9431200C94C4
:103FA000372011240C947C200E94592070F3959F97
:103FB000C1F3950F50E0551F629FF001729FBB2720
:103FC000F00DB11D639FAA27F00DB11DAA1F649FBC
:103FD0006627B00DA11D661F829F2227B00DA11D6F
:103FE000621F739FB00DA11D621F839FA00D611DF5
:103FF000221F749F3327A00D611D231F849F600D16
:10400000211D822F762F6A2F11249F5750409AF03E
:10401000F1F088234AF0EE0FFF1FBB1F661F771FCA
:10402000881F91505040A9F79E3F510580F00C9495
:1040300031200C947C205F3FE4F3983ED4F38695C6
:1040400077956795B795F795E7959F5FC1F7FE2B35
:10405000880F911D9695879597F908959927882738
:10406000089597F99F6780E870E060E008959FEFFA
:1040700080EC089500240A941616170618060906FF
:10408000089500240A9412161306140605060895CE
:10409000092E0394000C11F4882352F0BB0F40F456
:1040A000BF2B11F460FF04C06F5F7F4F8F4F9F4F96
:1040B000089557FD9058440F551F59F05F3F71F018
:1040C0004795880F97FB991F61F09F3F79F087957F
:1040D0000895121613061406551FF2CF4695F1DF08
:1040E00008C0161617061806991FF1CF8695710598
:1040F000610508940895E894BB2766277727CB01CC
:1041000097F908950E94C420A59F900DB49F900D2B
:10411000A49F800D911D112408952F923F924F92DC
:104120005F926F927F928F929F92AF92BF92CF9247
:10413000DF92EF92FF920F931F93CF93DF93CDB750
:10414000DEB7CA1BDB0B0FB6F894DEBF0FBECDBFC8
:1041500009942A88398848885F846E847D848C8499
:104160009B84AA84B984C884DF80EE80FD800C81A2
:104170001B81AA81B981CE0FD11D0FB6F894DEBF85
:104180000FBECDBFED010895A29FB001B39FC00146
:10419000A39F700D811D1124911DB29F700D811D73
:1041A0001124911D08950E94DA206894B1110C9495
:1041B0007C2008950E94612088F09F5798F0B92FC5
:1041C0009927B751B0F0E1F0660F771F881F991F4C
:1041D0001AF0BA95C9F714C0B13091F00E947B2053
:1041E000B1E008950C947B20672F782F8827B85F63
:1041F00039F0B93FCCF3869577956795B395D9F7A4
:104200003EF490958095709561957F4F8F4F9F4FAD
:104210000895EE0FFF1F0590F491E02D09940F9380
:104220001F93CF93DF938230910510F482E090E0EA
:10423000E0912203F091230330E020E0B0E0A0E021
:10424000309799F42115310509F44AC0281B390B20
:1042500024303105D8F58A819B816115710589F17A
:10426000FB0193838283FE0111C040815181028151
:10427000138148175907E0F04817590799F4109728
:1042800061F012960C93129713961C933296CF01FD
:10429000DF91CF911F910F91089500932203109306
:1042A0002303F4CF2115310551F04217530738F09D
:1042B000A901DB019A01BD01DF01F801C1CFEF01C6
:1042C000F9CF9093230380932203CDCFFE01E20F19
:1042D000F31F819391932250310939832883D7CFDB
:1042E0002091200330912103232B41F420911501CB
:1042F0003091160130932103209320032091130164
:10430000309114012115310541F42DB73EB740918C
:10431000170150911801241B350BE0912003F091F7
:104320002103E217F307A0F42E1B3F0B28173907D0
:1043300078F0AC014E5F5F4F2417350748F04E0F01
:104340005F1F5093210340932003819391939FCF4C
:10435000F0E0E0E09CCFCF93DF930097E9F0FC0121
:10436000329713821282A0912203B0912303ED01B0
:1043700030E020E01097A1F420813181820F931F5B
:1043800020912003309121032817390709F061C0DB
:10439000F0932103E0932003DF91CF910895EA0188
:1043A000CE17DF07E8F54A815B819E014115510573
:1043B000B1F7E901FB83EA8349915991C40FD51FF5
:1043C000EC17FD0761F4808191810296840F951F9F
:1043D000E90199838883828193819B838A83F0E0BA
:1043E000E0E012968D919C9113970097B9F52D916D
:1043F0003C911197CD010296820F931F20912003CB
:10440000309121032817390739F6309751F510926A
:10441000230310922203B0932103A0932003BCCF67
:10442000D383C28340815181840F951FC817D90758
:1044300061F44E5F5F4F88819981480F591F518306
:1044400040838A819B81938382832115310509F002
:10445000B0CFF0932303E09322039ECFFD01DC0154
:10446000C0CF13821282D7CFB0E0A0E0EAE3F2E23D
:104470000C948F208C01009751F4CB010E940F21E6
:104480008C01C801CDB7DEB7E0E10C94AB20FC0194
:10449000E60FF71F9C0122503109E217F30708F4D9
:1044A0009DC0D901CD91DC911197C617D70798F01F
:1044B000C530D10530F3CE0104978617970708F36E
:1044C000C61BD70B2297C193D1936D937C93CF01D9
:1044D0000E94AB21D6CF5B01AC1ABD0A4C018C0EF9
:1044E0009D1EA0912203B0912303512C412CF12C4D
:1044F000E12C109731F580912003909121038815CC
:10450000990509F05CC04616570608F058C080911E
:10451000130190911401009741F48DB79EB740911B
:10452000170150911801841B950BE817F90708F043
:1045300055C0F0932103E0932003F9017183608358
:10454000A0CF8D919C91119712966C901297139613
:104550007C901397A815B90559F56C0142E0C40E7B
:10456000D11CCA14DB0420F1AC014A195B09DA0141
:104570001296159780F06282738251834083D9012D
:104580006D937C93E114F10471F0D7011396FC93C1
:10459000EE93129776CF22968C0F9D1FF90191838F
:1045A0008083F301EFCFF0932303E093220369CFDD
:1045B0004816590608F42C017D01D3019ACFCB018E
:1045C0000E940F217C01009749F0AE01B8010E94C2
:1045D000F122C8010E94AB21870153CF10E000E017
:1045E00050CFFB01DC0102C001900D9241505040C0
:1045F000D8F70895DC0101C06D9341505040E0F7B9
:104600000895FC018191861721F08823D9F7992715
:1046100008953197CF010895FB01DC018D91019040
:1046200080190110D9F3990B0895FB01DC01019069
:0C4630000D920020E1F70895F894FFCFF0
:10463C00FFFFFFFF00E100000000000000C18081CF
:10464C00000000000024038000000000002B070085
:10465C000000006E08000000007A024F049B0290DC
:10466C0002E202A002BE0200000000A3041C05E14D
:10467C0004C60400000000BF122509C4089815C127
:10468C000824092209BC08B708AE08E308AB086F78
:10469C0008FEFF0000A10800000000691125096751
:1046AC000568108E050E11220989052907000000E6
:1046BC00001207BD069B0600000000CC051D091565
:1046CC00090D090509FD08F508ED080D0A005553FB
:1046DC004220496E697469616C697A6564207375EE
:1046EC00636365737366756C6C792E00636C6963B8
:1046FC006B004F534320646964206E6F7420737495
:08470C006172742E2E2E0000D4
:00000001FF
